{
 "_format": "hh-sol-artifact-1",
 "contractName": "CryptoDevToken",
 "sourceName": "contracts/CryptoDevToken.sol",
 "abi": [
  {
   "inputs": [
    {
     "internalType": "address",
     "name": "_cryptoDevsContract",
     "type": "address"
    }
   ],
   "stateMutability": "nonpayable",
   "type": "constructor"
  },
  {
   "anonymous": false,
   "inputs": [
    {
     "indexed": true,
     "internalType": "address",
     "name": "owner",
     "type": "address"
    },
    {
     "indexed": true,
     "internalType": "address",
     "name": "spender",
     "type": "address"
    },
    {
     "indexed": false,
     "internalType": "uint256",
     "name": "value",
     "type": "uint256"
    }
   ],
   "name": "Approval",
   "type": "event"
  },
  {
   "anonymous": false,
   "inputs": [
    {
     "indexed": true,
     "internalType": "address",
     "name": "previousOwner",
     "type": "address"
    },
    {
     "indexed": true,
     "internalType": "address",
     "name": "newOwner",
     "type": "address"
    }
   ],
   "name": "OwnershipTransferred",
   "type": "event"
  },
  {
   "anonymous": false,
   "inputs": [
    {
     "indexed": true,
     "internalType": "address",
     "name": "from",
     "type": "address"
    },
    {
     "indexed": true,
     "internalType": "address",
     "name": "to",
     "type": "address"
    },
    {
     "indexed": false,
     "internalType": "uint256",
     "name": "value",
     "type": "uint256"
    }
   ],
   "name": "Transfer",
   "type": "event"
  },
  {
   "stateMutability": "payable",
   "type": "fallback"
  },
  {
   "inputs": [
    {
     "internalType": "address",
     "name": "owner",
     "type": "address"
    },
    {
     "internalType": "address",
     "name": "spender",
     "type": "address"
    }
   ],
   "name": "allowance",
   "outputs": [
    {
     "internalType": "uint256",
     "name": "",
     "type": "uint256"
    }
   ],
   "stateMutability": "view",
   "type": "function"
  },
  {
   "inputs": [
    {
     "internalType": "address",
     "name": "spender",
     "type": "address"
    },
    {
     "internalType": "uint256",
     "name": "amount",
     "type": "uint256"
    }
   ],
   "name": "approve",
   "outputs": [
    {
     "internalType": "bool",
     "name": "",
     "type": "bool"
    }
   ],
   "stateMutability": "nonpayable",
   "type": "function"
  },
  {
   "inputs": [
    {
     "internalType": "address",
     "name": "account",
     "type": "address"
    }
   ],
   "name": "balanceOf",
   "outputs": [
    {
     "internalType": "uint256",
     "name": "",
     "type": "uint256"
    }
   ],
   "stateMutability": "view",
   "type": "function"
  },
  {
   "inputs": [],
   "name": "claim",
   "outputs": [],
   "stateMutability": "nonpayable",
   "type": "function"
  },
  {
   "inputs": [],
   "name": "decimals",
   "outputs": [
    {
     "internalType": "uint8",
     "name": "",
     "type": "uint8"
    }
   ],
   "stateMutability": "view",
   "type": "function"
  },
  {
   "inputs": [
    {
     "internalType": "address",
     "name": "spender",
     "type": "address"
    },
    {
     "internalType": "uint256",
     "name": "subtractedValue",
     "type": "uint256"
    }
   ],
   "name": "decreaseAllowance",
   "outputs": [
    {
     "internalType": "bool",
     "name": "",
     "type": "bool"
    }
   ],
   "stateMutability": "nonpayable",
   "type": "function"
  },
  {
   "inputs": [
    {
     "internalType": "address",
     "name": "spender",
     "type": "address"
    },
    {
     "internalType": "uint256",
     "name": "addedValue",
     "type": "uint256"
    }
   ],
   "name": "increaseAllowance",
   "outputs": [
    {
     "internalType": "bool",
     "name": "",
     "type": "bool"
    }
   ],
   "stateMutability": "nonpayable",
   "type": "function"
  },
  {
   "inputs": [],
   "name": "maxTotalSupply",
   "outputs": [
    {
     "internalType": "uint256",
     "name": "",
     "type": "uint256"
    }
   ],
   "stateMutability": "view",
   "type": "function"
  },
  {
   "inputs": [
    {
     "internalType": "uint256",
     "name": "amount",
     "type": "uint256"
    }
   ],
   "name": "mint",
   "outputs": [],
   "stateMutability": "payable",
   "type": "function"
  },
  {
   "inputs": [],
   "name": "name",
   "outputs": [
    {
     "internalType": "string",
     "name": "",
     "type": "string"
    }
   ],
   "stateMutability": "view",
   "type": "function"
  },
  {
   "inputs": [],
   "name": "owner",
   "outputs": [
    {
     "internalType": "address",
     "name": "",
     "type": "address"
    }
   ],
   "stateMutability": "view",
   "type": "function"
  },
  {
   "inputs": [],
   "name": "renounceOwnership",
   "outputs": [],
   "stateMutability": "nonpayable",
   "type": "function"
  },
  {
   "inputs": [],
   "name": "symbol",
   "outputs": [
    {
     "internalType": "string",
     "name": "",
     "type": "string"
    }
   ],
   "stateMutability": "view",
   "type": "function"
  },
  {
   "inputs": [
    {
     "internalType": "uint256",
     "name": "",
     "type": "uint256"
    }
   ],
   "name": "tokenIdsClaimed",
   "outputs": [
    {
     "internalType": "bool",
     "name": "",
     "type": "bool"
    }
   ],
   "stateMutability": "view",
   "type": "function"
  },
  {
   "inputs": [],
   "name": "tokenPrice",
   "outputs": [
    {
     "internalType": "uint256",
     "name": "",
     "type": "uint256"
    }
   ],
   "stateMutability": "view",
   "type": "function"
  },
  {
   "inputs": [],
   "name": "tokensPerNFT",
   "outputs": [
    {
     "internalType": "uint256",
     "name": "",
     "type": "uint256"
    }
   ],
   "stateMutability": "view",
   "type": "function"
  },
  {
   "inputs": [],
   "name": "totalSupply",
   "outputs": [
    {
     "internalType": "uint256",
     "name": "",
     "type": "uint256"
    }
   ],
   "stateMutability": "view",
   "type": "function"
  },
  {
   "inputs": [
    {
     "internalType": "address",
     "name": "to",
     "type": "address"
    },
    {
     "internalType": "uint256",
     "name": "amount",
     "type": "uint256"
    }
   ],
   "name": "transfer",
   "outputs": [
    {
     "internalType": "bool",
     "name": "",
     "type": "bool"
    }
   ],
   "stateMutability": "nonpayable",
   "type": "function"
  },
  {
   "inputs": [
    {
     "internalType": "address",
     "name": "from",
     "type": "address"
    },
    {
     "internalType": "address",
     "name": "to",
     "type": "address"
    },
    {
     "internalType": "uint256",
     "name": "amount",
     "type": "uint256"
    }
   ],
   "name": "transferFrom",
   "outputs": [
    {
     "internalType": "bool",
     "name": "",
     "type": "bool"
    }
   ],
   "stateMutability": "nonpayable",
   "type": "function"
  },
  {
   "inputs": [
    {
     "internalType": "address",
     "name": "newOwner",
     "type": "address"
    }
   ],
   "name": "transferOwnership",
   "outputs": [],
   "stateMutability": "nonpayable",
   "type": "function"
  },
  {
   "inputs": [],
   "name": "withdraw",
   "outputs": [],
   "stateMutability": "nonpayable",
   "type": "function"
  },
  {
   "stateMutability": "payable",
   "type": "receive"
  }
 ],
 "bytecode": "0x60806040523480156200001157600080fd5b5060405162002bff38038062002bff833981810160405281019062000037919062000362565b6040518060400160405280601081526020017f43727970746f2044657620546f6b656e000000000000000000000000000000008152506040518060400160405280600281526020017f43440000000000000000000000000000000000000000000000000000000000008152508160039080519060200190620000bb92919062000248565b508060049080519060200190620000d492919062000248565b505050620000f7620000eb6200017760201b60201c565b6200017f60201b60201c565b62000113676e7267af3aa392e460c01b6200024560201b60201c565b6200012f675be77c1c4cf74b8660c01b6200024560201b60201c565b80600660006101000a81548173ffffffffffffffffffffffffffffffffffffffff021916908373ffffffffffffffffffffffffffffffffffffffff16021790555050620003f9565b600033905090565b6000600560009054906101000a900473ffffffffffffffffffffffffffffffffffffffff16905081600560006101000a81548173ffffffffffffffffffffffffffffffffffffffff021916908373ffffffffffffffffffffffffffffffffffffffff1602179055508173ffffffffffffffffffffffffffffffffffffffff168173ffffffffffffffffffffffffffffffffffffffff167f8be0079c531659141344cd1fd0a4f28419497f9722a3daafe3b4186f6b6457e060405160405180910390a35050565b50565b8280546200025690620003c3565b90600052602060002090601f0160209004810192826200027a5760008555620002c6565b82601f106200029557805160ff1916838001178555620002c6565b82800160010185558215620002c6579182015b82811115620002c5578251825591602001919060010190620002a8565b5b509050620002d59190620002d9565b5090565b5b80821115620002f4576000816000905550600101620002da565b5090565b600080fd5b600073ffffffffffffffffffffffffffffffffffffffff82169050919050565b60006200032a82620002fd565b9050919050565b6200033c816200031d565b81146200034857600080fd5b50565b6000815190506200035c8162000331565b92915050565b6000602082840312156200037b576200037a620002f8565b5b60006200038b848285016200034b565b91505092915050565b7f4e487b7100000000000000000000000000000000000000000000000000000000600052602260045260246000fd5b60006002820490506001821680620003dc57607f821691505b60208210811415620003f357620003f262000394565b5b50919050565b6127f680620004096000396000f3fe60806040526004361061012e5760003560e01c80635f3690af116100ab57806395d89b411161006f57806395d89b41146103ee578063a0712d6814610419578063a457c2d714610435578063a9059cbb14610472578063dd62ed3e146104af578063f2fde38b146104ec57610135565b80635f3690af1461030757806370a0823114610344578063715018a6146103815780637ff9b596146103985780638da5cb5b146103c357610135565b8063313ce567116100f2578063313ce5671461024657806339509351146102715780633ccfd60b146102ae5780634e71d92d146102c55780635afcc2f5146102dc57610135565b806306fdde031461014b578063095ea7b31461017657806318160ddd146101b357806323b872dd146101de5780632ab4d0521461021b57610135565b3661013557005b610149674c27cfcebcb587a460c01b610515565b005b34801561015757600080fd5b50610160610518565b60405161016d9190611a7b565b60405180910390f35b34801561018257600080fd5b5061019d60048036038101906101989190611b36565b6105aa565b6040516101aa9190611b91565b60405180910390f35b3480156101bf57600080fd5b506101c86105cd565b6040516101d59190611bbb565b60405180910390f35b3480156101ea57600080fd5b5061020560048036038101906102009190611bd6565b6105d7565b6040516102129190611b91565b60405180910390f35b34801561022757600080fd5b50610230610606565b60405161023d9190611bbb565b60405180910390f35b34801561025257600080fd5b5061025b610614565b6040516102689190611c45565b60405180910390f35b34801561027d57600080fd5b5061029860048036038101906102939190611b36565b61061d565b6040516102a59190611b91565b60405180910390f35b3480156102ba57600080fd5b506102c3610654565b005b3480156102d157600080fd5b506102da6108b5565b005b3480156102e857600080fd5b506102f1610d66565b6040516102fe9190611bbb565b60405180910390f35b34801561031357600080fd5b5061032e60048036038101906103299190611c60565b610d72565b60405161033b9190611b91565b60405180910390f35b34801561035057600080fd5b5061036b60048036038101906103669190611c8d565b610d92565b6040516103789190611bbb565b60405180910390f35b34801561038d57600080fd5b50610396610dda565b005b3480156103a457600080fd5b506103ad610dee565b6040516103ba9190611bbb565b60405180910390f35b3480156103cf57600080fd5b506103d8610df9565b6040516103e59190611cc9565b60405180910390f35b3480156103fa57600080fd5b50610403610e23565b6040516104109190611a7b565b60405180910390f35b610433600480360381019061042e9190611c60565b610eb5565b005b34801561044157600080fd5b5061045c60048036038101906104579190611b36565b6110c1565b6040516104699190611b91565b60405180910390f35b34801561047e57600080fd5b5061049960048036038101906104949190611b36565b611138565b6040516104a69190611b91565b60405180910390f35b3480156104bb57600080fd5b506104d660048036038101906104d19190611ce4565b61115b565b6040516104e39190611bbb565b60405180910390f35b3480156104f857600080fd5b50610513600480360381019061050e9190611c8d565b6111e2565b005b50565b60606003805461052790611d53565b80601f016020809104026020016040519081016040528092919081815260200182805461055390611d53565b80156105a05780601f10610575576101008083540402835291602001916105a0565b820191906000526020600020905b81548152906001019060200180831161058357829003601f168201915b5050505050905090565b6000806105b5611266565b90506105c281858561126e565b600191505092915050565b6000600254905090565b6000806105e2611266565b90506105ef858285611439565b6105fa8585856114c5565b60019150509392505050565b69021e19e0c9bab240000081565b60006012905090565b600080610628611266565b905061064981858561063a858961115b565b6106449190611db4565b61126e565b600191505092915050565b6106686723a4c33899f21ee260c01b610515565b61067061173d565b61068467505ff78d26095dc060c01b610515565b6106986772e6ed91d87db8fa60c01b610515565b6106ac67c4cfeb755a79049d60c01b610515565b6106c067aae9b54f5385e3e860c01b610515565b60004790506106d967bb45bf51b6f195cb60c01b610515565b6106ed67fc17858dae9b952c60c01b610515565b610701677eaf673f2584c83460c01b610515565b60008111610744576040517f08c379a000000000000000000000000000000000000000000000000000000000815260040161073b90611e7c565b60405180910390fd5b61075867b36a2fd85d9f315c60c01b610515565b61076c67831301550e659ac660c01b610515565b61078067dc80110858ab0bdc60c01b610515565b600061078a610df9565b90506107a067358f8bd775d3bbbd60c01b610515565b6107b467cc53155a7026148b60c01b610515565b60008173ffffffffffffffffffffffffffffffffffffffff16836040516107da90611ecd565b60006040518083038185875af1925050503d8060008114610817576040519150601f19603f3d011682016040523d82523d6000602084013e61081c565b606091505b50509050610834670727250fda6aeddc60c01b610515565b610848670e4a9784a1e2657660c01b610515565b61085c677b47b50b8e3d53f660c01b610515565b8061089c576040517f08c379a000000000000000000000000000000000000000000000000000000000815260040161089390611f2e565b60405180910390fd5b6108b06728d333b079ab225360c01b610515565b505050565b6108c967bd800cf213fd728b60c01b610515565b6108dd67d75f6eab38a1e67b60c01b610515565b6108f167de0bd532995243e260c01b610515565b600033905061090a6718cef1283c5d807560c01b610515565b61091e67f817178be300f77560c01b610515565b6000600660009054906101000a900473ffffffffffffffffffffffffffffffffffffffff1673ffffffffffffffffffffffffffffffffffffffff166370a08231836040518263ffffffff1660e01b815260040161097b9190611cc9565b60206040518083038186803b15801561099357600080fd5b505afa1580156109a7573d6000803e3d6000fd5b505050506040513d601f19601f820116820180604052508101906109cb9190611f63565b90506109e1677bfd35d0c079b4c360c01b610515565b6109f5678c344da3ee442fa060c01b610515565b610a09671a9523f6cc3ca58a60c01b610515565b60008111610a4c576040517f08c379a0000000000000000000000000000000000000000000000000000000008152600401610a4390612002565b60405180910390fd5b610a6067924c6136f33ecd9560c01b610515565b610a74673240c7c4bb889fb560c01b610515565b610a8867eac8507aa3391dde60c01b610515565b6000610a9e67106677c6329fbcf060c01b610515565b610ab267a81edcc2d3660a2860c01b610515565b60005b82811015610c8857610ad167603dac8def1de5fa60c01b610515565b610ae56794fb348331b807a160c01b610515565b6000600660009054906101000a900473ffffffffffffffffffffffffffffffffffffffff1673ffffffffffffffffffffffffffffffffffffffff16632f745c5986846040518363ffffffff1660e01b8152600401610b44929190612022565b60206040518083038186803b158015610b5c57600080fd5b505afa158015610b70573d6000803e3d6000fd5b505050506040513d601f19601f82011682018060405250810190610b949190611f63565b9050610baa67563a86a744e66de060c01b610515565b610bbe67193319ca575dec5560c01b610515565b6007600082815260200190815260200160002060009054906101000a900460ff16610c5f57610bf76789a0f9886cbdda0e60c01b610515565b610c0b67568ef6afe345f7f960c01b610515565b600183610c189190611db4565b9250610c2e675af4d52913640e2660c01b610515565b60016007600083815260200190815260200160002060006101000a81548160ff021916908315150217905550610c74565b610c7367eb5fd6f41f57056360c01b610515565b5b508080610c809061204b565b915050610ab5565b50610c9d67a89c581e5bc1c94760c01b610515565b610cb16703a3075f5aefcda560c01b610515565b610cc567e31e49411807a8c060c01b610515565b60008111610d08576040517f08c379a0000000000000000000000000000000000000000000000000000000008152600401610cff90612106565b60405180910390fd5b610d1c673d359f030d64c6be60c01b610515565b610d306779a887f891ee1b5260c01b610515565b610d4467cc53b01bd27bf9b560c01b610515565b610d6133678ac7230489e8000083610d5c9190612126565b6117bb565b505050565b678ac7230489e8000081565b60076020528060005260406000206000915054906101000a900460ff1681565b60008060008373ffffffffffffffffffffffffffffffffffffffff1673ffffffffffffffffffffffffffffffffffffffff168152602001908152602001600020549050919050565b610de261173d565b610dec6000611912565b565b66038d7ea4c6800081565b6000600560009054906101000a900473ffffffffffffffffffffffffffffffffffffffff16905090565b606060048054610e3290611d53565b80601f0160208091040260200160405190810160405280929190818152602001828054610e5e90611d53565b8015610eab5780601f10610e8057610100808354040283529160200191610eab565b820191906000526020600020905b815481529060010190602001808311610e8e57829003601f168201915b5050505050905090565b610ec967b42233312c5c7a3460c01b610515565b610edd67a3bd1b86a9290acd60c01b610515565b610ef1679b09a703f9edff8460c01b610515565b60008166038d7ea4c68000610f069190612126565b9050610f1c676b479b408d7ea95060c01b610515565b610f3067fc4139795d32611c60c01b610515565b610f4467f972c6346b35b09060c01b610515565b80341015610f87576040517f08c379a0000000000000000000000000000000000000000000000000000000008152600401610f7e906121cc565b60405180910390fd5b610f9b67ecf668205f83b3fa60c01b610515565b610faf6778dd04301cbab3cf60c01b610515565b610fc367a788bda7a1f019b260c01b610515565b6000670de0b6b3a764000083610fd99190612126565b9050610fef674a640ba17b78916460c01b610515565b61100367d4c8a217ab1b794a60c01b610515565b611017672c93c2dbabc2c12560c01b610515565b69021e19e0c9bab24000008161102b6105cd565b6110359190611db4565b1115611076576040517f08c379a000000000000000000000000000000000000000000000000000000000815260040161106d9061225e565b60405180910390fd5b61108a671025a7740b1e035460c01b610515565b61109e67f6b1b37a3c42bf0660c01b610515565b6110b267be57854a40af3c7860c01b610515565b6110bc33826117bb565b505050565b6000806110cc611266565b905060006110da828661115b565b90508381101561111f576040517f08c379a0000000000000000000000000000000000000000000000000000000008152600401611116906122f0565b60405180910390fd5b61112c828686840361126e565b60019250505092915050565b600080611143611266565b90506111508185856114c5565b600191505092915050565b6000600160008473ffffffffffffffffffffffffffffffffffffffff1673ffffffffffffffffffffffffffffffffffffffff16815260200190815260200160002060008373ffffffffffffffffffffffffffffffffffffffff1673ffffffffffffffffffffffffffffffffffffffff16815260200190815260200160002054905092915050565b6111ea61173d565b600073ffffffffffffffffffffffffffffffffffffffff168173ffffffffffffffffffffffffffffffffffffffff16141561125a576040517f08c379a000000000000000000000000000000000000000000000000000000000815260040161125190612382565b60405180910390fd5b61126381611912565b50565b600033905090565b600073ffffffffffffffffffffffffffffffffffffffff168373ffffffffffffffffffffffffffffffffffffffff1614156112de576040517f08c379a00000000000000000000000000000000000000000000000000000000081526004016112d590612414565b60405180910390fd5b600073ffffffffffffffffffffffffffffffffffffffff168273ffffffffffffffffffffffffffffffffffffffff16141561134e576040517f08c379a0000000000000000000000000000000000000000000000000000000008152600401611345906124a6565b60405180910390fd5b80600160008573ffffffffffffffffffffffffffffffffffffffff1673ffffffffffffffffffffffffffffffffffffffff16815260200190815260200160002060008473ffffffffffffffffffffffffffffffffffffffff1673ffffffffffffffffffffffffffffffffffffffff168152602001908152602001600020819055508173ffffffffffffffffffffffffffffffffffffffff168373ffffffffffffffffffffffffffffffffffffffff167f8c5be1e5ebec7d5bd14f71427d1e84f3dd0314c0f7b2291e5b200ac8c7c3b9258360405161142c9190611bbb565b60405180910390a3505050565b6000611445848461115b565b90507fffffffffffffffffffffffffffffffffffffffffffffffffffffffffffffffff81146114bf57818110156114b1576040517f08c379a00000000000000000000000000000000000000000000000000000000081526004016114a890612512565b60405180910390fd5b6114be848484840361126e565b5b50505050565b600073ffffffffffffffffffffffffffffffffffffffff168373ffffffffffffffffffffffffffffffffffffffff161415611535576040517f08c379a000000000000000000000000000000000000000000000000000000000815260040161152c906125a4565b60405180910390fd5b600073ffffffffffffffffffffffffffffffffffffffff168273ffffffffffffffffffffffffffffffffffffffff1614156115a5576040517f08c379a000000000000000000000000000000000000000000000000000000000815260040161159c90612636565b60405180910390fd5b6115b08383836119d8565b60008060008573ffffffffffffffffffffffffffffffffffffffff1673ffffffffffffffffffffffffffffffffffffffff16815260200190815260200160002054905081811015611636576040517f08c379a000000000000000000000000000000000000000000000000000000000815260040161162d906126c8565b60405180910390fd5b8181036000808673ffffffffffffffffffffffffffffffffffffffff1673ffffffffffffffffffffffffffffffffffffffff16815260200190815260200160002081905550816000808573ffffffffffffffffffffffffffffffffffffffff1673ffffffffffffffffffffffffffffffffffffffff168152602001908152602001600020600082825401925050819055508273ffffffffffffffffffffffffffffffffffffffff168473ffffffffffffffffffffffffffffffffffffffff167fddf252ad1be2c89b69c2b068fc378daa952ba7f163c4a11628f55a4df523b3ef846040516117249190611bbb565b60405180910390a36117378484846119dd565b50505050565b611745611266565b73ffffffffffffffffffffffffffffffffffffffff16611763610df9565b73ffffffffffffffffffffffffffffffffffffffff16146117b9576040517f08c379a00000000000000000000000000000000000000000000000000000000081526004016117b090612734565b60405180910390fd5b565b600073ffffffffffffffffffffffffffffffffffffffff168273ffffffffffffffffffffffffffffffffffffffff16141561182b576040517f08c379a0000000000000000000000000000000000000000000000000000000008152600401611822906127a0565b60405180910390fd5b611837600083836119d8565b80600260008282546118499190611db4565b92505081905550806000808473ffffffffffffffffffffffffffffffffffffffff1673ffffffffffffffffffffffffffffffffffffffff168152602001908152602001600020600082825401925050819055508173ffffffffffffffffffffffffffffffffffffffff16600073ffffffffffffffffffffffffffffffffffffffff167fddf252ad1be2c89b69c2b068fc378daa952ba7f163c4a11628f55a4df523b3ef836040516118fa9190611bbb565b60405180910390a361190e600083836119dd565b5050565b6000600560009054906101000a900473ffffffffffffffffffffffffffffffffffffffff16905081600560006101000a81548173ffffffffffffffffffffffffffffffffffffffff021916908373ffffffffffffffffffffffffffffffffffffffff1602179055508173ffffffffffffffffffffffffffffffffffffffff168173ffffffffffffffffffffffffffffffffffffffff167f8be0079c531659141344cd1fd0a4f28419497f9722a3daafe3b4186f6b6457e060405160405180910390a35050565b505050565b505050565b600081519050919050565b600082825260208201905092915050565b60005b83811015611a1c578082015181840152602081019050611a01565b83811115611a2b576000848401525b50505050565b6000601f19601f8301169050919050565b6000611a4d826119e2565b611a5781856119ed565b9350611a678185602086016119fe565b611a7081611a31565b840191505092915050565b60006020820190508181036000830152611a958184611a42565b905092915050565b600080fd5b600073ffffffffffffffffffffffffffffffffffffffff82169050919050565b6000611acd82611aa2565b9050919050565b611add81611ac2565b8114611ae857600080fd5b50565b600081359050611afa81611ad4565b92915050565b6000819050919050565b611b1381611b00565b8114611b1e57600080fd5b50565b600081359050611b3081611b0a565b92915050565b60008060408385031215611b4d57611b4c611a9d565b5b6000611b5b85828601611aeb565b9250506020611b6c85828601611b21565b9150509250929050565b60008115159050919050565b611b8b81611b76565b82525050565b6000602082019050611ba66000830184611b82565b92915050565b611bb581611b00565b82525050565b6000602082019050611bd06000830184611bac565b92915050565b600080600060608486031215611bef57611bee611a9d565b5b6000611bfd86828701611aeb565b9350506020611c0e86828701611aeb565b9250506040611c1f86828701611b21565b9150509250925092565b600060ff82169050919050565b611c3f81611c29565b82525050565b6000602082019050611c5a6000830184611c36565b92915050565b600060208284031215611c7657611c75611a9d565b5b6000611c8484828501611b21565b91505092915050565b600060208284031215611ca357611ca2611a9d565b5b6000611cb184828501611aeb565b91505092915050565b611cc381611ac2565b82525050565b6000602082019050611cde6000830184611cba565b92915050565b60008060408385031215611cfb57611cfa611a9d565b5b6000611d0985828601611aeb565b9250506020611d1a85828601611aeb565b9150509250929050565b7f4e487b7100000000000000000000000000000000000000000000000000000000600052602260045260246000fd5b60006002820490506001821680611d6b57607f821691505b60208210811415611d7f57611d7e611d24565b5b50919050565b7f4e487b7100000000000000000000000000000000000000000000000000000000600052601160045260246000fd5b6000611dbf82611b00565b9150611dca83611b00565b9250827fffffffffffffffffffffffffffffffffffffffffffffffffffffffffffffffff03821115611dff57611dfe611d85565b5b828201905092915050565b7f4e6f7468696e6720746f2077697468647261773b20636f6e747261637420626160008201527f6c616e636520656d707479000000000000000000000000000000000000000000602082015250565b6000611e66602b836119ed565b9150611e7182611e0a565b604082019050919050565b60006020820190508181036000830152611e9581611e59565b9050919050565b600081905092915050565b50565b6000611eb7600083611e9c565b9150611ec282611ea7565b600082019050919050565b6000611ed882611eaa565b9150819050919050565b7f4661696c656420746f2073656e64204574686572000000000000000000000000600082015250565b6000611f186014836119ed565b9150611f2382611ee2565b602082019050919050565b60006020820190508181036000830152611f4781611f0b565b9050919050565b600081519050611f5d81611b0a565b92915050565b600060208284031215611f7957611f78611a9d565b5b6000611f8784828501611f4e565b91505092915050565b7f596f7520646f6e74206f776e20616e792043727970746f20446576204e46542760008201527f7300000000000000000000000000000000000000000000000000000000000000602082015250565b6000611fec6021836119ed565b9150611ff782611f90565b604082019050919050565b6000602082019050818103600083015261201b81611fdf565b9050919050565b60006040820190506120376000830185611cba565b6120446020830184611bac565b9392505050565b600061205682611b00565b91507fffffffffffffffffffffffffffffffffffffffffffffffffffffffffffffffff82141561208957612088611d85565b5b600182019050919050565b7f596f75206861766520616c726561647920636c61696d656420616c6c2074686560008201527f20746f6b656e7300000000000000000000000000000000000000000000000000602082015250565b60006120f06027836119ed565b91506120fb82612094565b604082019050919050565b6000602082019050818103600083015261211f816120e3565b9050919050565b600061213182611b00565b915061213c83611b00565b9250817fffffffffffffffffffffffffffffffffffffffffffffffffffffffffffffffff048311821515161561217557612174611d85565b5b828202905092915050565b7f45746865722073656e7420697320696e636f7272656374000000000000000000600082015250565b60006121b66017836119ed565b91506121c182612180565b602082019050919050565b600060208201905081810360008301526121e5816121a9565b9050919050565b7f4578636565647320746865206d617820746f74616c20737570706c792061766160008201527f696c61626c652e00000000000000000000000000000000000000000000000000602082015250565b60006122486027836119ed565b9150612253826121ec565b604082019050919050565b600060208201905081810360008301526122778161223b565b9050919050565b7f45524332303a2064656372656173656420616c6c6f77616e63652062656c6f7760008201527f207a65726f000000000000000000000000000000000000000000000000000000602082015250565b60006122da6025836119ed565b91506122e58261227e565b604082019050919050565b60006020820190508181036000830152612309816122cd565b9050919050565b7f4f776e61626c653a206e6577206f776e657220697320746865207a65726f206160008201527f6464726573730000000000000000000000000000000000000000000000000000602082015250565b600061236c6026836119ed565b915061237782612310565b604082019050919050565b6000602082019050818103600083015261239b8161235f565b9050919050565b7f45524332303a20617070726f76652066726f6d20746865207a65726f2061646460008201527f7265737300000000000000000000000000000000000000000000000000000000602082015250565b60006123fe6024836119ed565b9150612409826123a2565b604082019050919050565b6000602082019050818103600083015261242d816123f1565b9050919050565b7f45524332303a20617070726f766520746f20746865207a65726f20616464726560008201527f7373000000000000000000000000000000000000000000000000000000000000602082015250565b60006124906022836119ed565b915061249b82612434565b604082019050919050565b600060208201905081810360008301526124bf81612483565b9050919050565b7f45524332303a20696e73756666696369656e7420616c6c6f77616e6365000000600082015250565b60006124fc601d836119ed565b9150612507826124c6565b602082019050919050565b6000602082019050818103600083015261252b816124ef565b9050919050565b7f45524332303a207472616e736665722066726f6d20746865207a65726f20616460008201527f6472657373000000000000000000000000000000000000000000000000000000602082015250565b600061258e6025836119ed565b915061259982612532565b604082019050919050565b600060208201905081810360008301526125bd81612581565b9050919050565b7f45524332303a207472616e7366657220746f20746865207a65726f206164647260008201527f6573730000000000000000000000000000000000000000000000000000000000602082015250565b60006126206023836119ed565b915061262b826125c4565b604082019050919050565b6000602082019050818103600083015261264f81612613565b9050919050565b7f45524332303a207472616e7366657220616d6f756e742065786365656473206260008201527f616c616e63650000000000000000000000000000000000000000000000000000602082015250565b60006126b26026836119ed565b91506126bd82612656565b604082019050919050565b600060208201905081810360008301526126e1816126a5565b9050919050565b7f4f776e61626c653a2063616c6c6572206973206e6f7420746865206f776e6572600082015250565b600061271e6020836119ed565b9150612729826126e8565b602082019050919050565b6000602082019050818103600083015261274d81612711565b9050919050565b7f45524332303a206d696e7420746f20746865207a65726f206164647265737300600082015250565b600061278a601f836119ed565b915061279582612754565b602082019050919050565b600060208201905081810360008301526127b98161277d565b905091905056fea2646970667358221220d39b296220c13b8d65e556665ca0ae1b3290e9c9a48b0b99ebe3dcd57904f22164736f6c63430008090033",
 "linkReferences": {},
 "deployedLinkReferences": {}
}